:100000000C9446000C9465000C9465000C946500FB
:100010000C9465000C9465000C9465000C946500CC
:100020000C9465000C9465000C9465000C946500BC
:100030000C9465000C9465000C9465000C946500AC
:100040000C9465000C9465000C9465000C9465009C
:100050000C9465000C9465000C9465000C9465008C
:100060000C9465000C9465000C9465000C9465007C
:100070000C9465000C9467000C9465000C9465006A
:100080000C9465000C9465000C94650011241FBE4F
:10009000CFEFD0E1DEBFCDBF11E0A0E0B1E0EEE5F3
:1000A000F1E000E00BBF02C007900D92A832B1074B
:1000B000D9F721E0A8E2B1E001C01D92A932B20750
:1000C000E1F70E9493000C94AD000C9400001F9285
:1000D0000F920FB60F9211240BB60F922F933F93EE
:1000E0008F93EF93FF9380912801E82FF0E0EE0FBC
:1000F000FF1FE050FF4F208131813BBD2ABD8F5F44
:10010000843171F080932801FF91EF918F913F919D
:100110002F910F900BBE0F900FBE0F901F90189550
:1001200010922801F1CF80E287BB8FB5826C8FBD22
:100130008EB589618EBD10927A0080E090EF97BDF8
:1001400086BD10928B0082E080938A0010928C0012
:0E01500084E080937D007894FFCFF894FFCF79
:10015E0000010020007000A000C000D0EED000DF33
:10016E0000E000EF00EF00E000DFEED000D000C0B6
:08017E0000A000700020000148
:00000001FF
