:100000000C9446000C9465000C9465000C946500FB
:100010000C9465000C9465000C9465000C946500CC
:100020000C9465000C9465000C9465000C946500BC
:100030000C9465000C9465000C9465000C946500AC
:100040000C9465000C9465000C9465000C9465009C
:100050000C9465000C9465000C9465000C9465008C
:100060000C9465000C9465000C9465000C9465007C
:100070000C9465000C9465000C9465000C9465006C
:100080000C9465000C9465000C94650011241FBE4F
:10009000CFEFD0E1DEBFCDBF11E0A0E0B1E0E6ECF4
:1000A000FDE000E00BBF02C007900D92AA37B10738
:1000B000D9F721E0AAE7B1E001C01D92AB3AB2073F
:1000C000E1F70E9439050C94E1060C94000087B317
:1000D000876087BB80E58DB981E08EB9089591E096
:1000E000811101C090E09FB9779BFECF6FB9779BDC
:1000F000FECF8091620088608093620080916200F0
:10010000877F80936200089520917A01820F911D6C
:10011000FC01808191E09FB9779BFECF8FB9779BDF
:10012000FECF8091620088608093620080916200BF
:10013000877F8093620080917A018F5F80937A013C
:100140008031F9F0803209F00895E5EDEA95F1F794
:1001500000001FB8779BFECF80E88FB9779BFECF5A
:100160008091620088608093620080916200877F46
:1001700080936200F5EDFA95F1F7000010927A0194
:100180000895F5EDFA95F1F700001FB8779BFECFC3
:1001900080EC8FB9779BFECF80916200886080935E
:1001A000620080916200877F8093620085ED8A956E
:1001B000F1F7000080917A01C5CF660F660F660FD8
:1001C000605C1FB8779BFECF6FB9779BFECF209105
:1001D000620028602093620020916200277F2093B4
:1001E000620025ED2A95F1F70000FC019C01285FD3
:1001F0003F4F91E081919FB9779BFECF8FB9779B5D
:10020000FECF8091620088608093620080916200DE
:10021000877F8093620085ED8A95F1F70000E217F1
:10022000F30741F708958D5F8295880F880F807CD2
:100230006058680F1FB8779BFECF6FB9779BFECFD2
:100240008091620088608093620080916200877F65
:10025000809362000895811113C081E08FB9779B6C
:10026000FECF80E38FB9779BFECF809162008860DC
:100270008093620080916200877F8093620008957E
:100280008436C0F48A3070F59DEC899F912D11243D
:10029000969596959695292F220F220F920F990FDA
:1002A000891B805D91E09FB9779BFECF8FB9779BCB
:1002B000FECFDBCF99E2899F912D112492959F70FB
:1002C000905D21E02FB9779BFECF9FB9779BFECF42
:1002D0009091620098609093620090916200977F85
:1002E0009093620099E2899F912D112492959F70BD
:1002F000382F24E6929F301911242DEC329F912D36
:100300001124969596959695905D21E02FB9779B4F
:10031000FECF9FB9779BFECF90916200986090933B
:10032000620090916200977F90936200ADCF87FF4B
:1003300019C091E09FB9779BFECF9DE29FB9779B53
:10034000FECF90916200986090936200909162005D
:10035000977F9093620095ED9A95F1F70000819553
:100360000C942B010C942B011FB8779BFECF8EE0D1
:100370008FB9779BFECF8091620088608093620086
:1003800080916200877F8093620008951FB8779BF9
:10039000FECF8CE08FB9779BFECF809162008860A2
:1003A0008093620080916200877F8093620008954D
:1003B0001FB8779BFECF8EE18FB9779BFECF8091E0
:1003C000620088608093620080916200877F8093E2
:1003D000620008951FB8779BFECF88E18FB9779BA5
:1003E000FECF8091620088608093620080916200FD
:1003F000877F809362000895E2E6F0E08081886064
:1004000080838081877F808308951FB8779BFECF8C
:1004100081E08FB9779BFECF8091620088608093E6
:10042000620080916200877F809362008FE19CE18F
:100430000197F1F700C0000008951FB8779BFECF29
:1004400082E08FB9779BFECF8091620088608093B5
:10045000620080916200877F809362008FE697E15F
:100460000197F1F700C0000008951FB8779BFECFF9
:1004700080EC8FB9779BFECF80916200886080937B
:10048000620080916200877F8093620085ED8A958B
:10049000F1F7000008951FB8779BFECF80E88FB971
:1004A000779BFECF8091620088608093620080918C
:1004B0006200877F8093620085ED8A95F1F70000E6
:1004C000089590E131E020E23FB9779BFECF2FB94C
:1004D000779BFECF8091620088608093620080915C
:1004E0006200877F8093620085ED8A95F1F70000B6
:1004F000915051F7089591E09FB9779BFECF8FB946
:10050000779BFECF8091620088608093620080912B
:100510006200877F809362000895FC0160E050E0F4
:1005200040E071E04E0F5F1FDA018C917FB9779B3D
:10053000FECF8FB9779BFECF909162009860909329
:10054000620090916200977F90936200B5EDBA953A
:10055000F1F700006F5F462F50E0DF010D900020A3
:10056000E9F79D012E1B3F0B225031092417350757
:10057000C8F608958FEF99EF0197F1F700C00000DA
:1005800088E0809361001FB8779BFECF80E38FB92E
:10059000779BFECF8091620088608093620080919B
:1005A0006200877F809362008FE59DE60197F1F7F7
:1005B00000C000001FB8779BFECF80E38FB9779B08
:1005C000FECF80916200886080936200809162001B
:1005D000877F809362008FE59DE60197F1F700C069
:1005E00000001FB8779BFECF80E38FB9779BFECFCB
:1005F0008091620088608093620080916200877FB2
:10060000809362008FE59DE60197F1F700C000003E
:100610001FB8779BFECF88E38FB9779BFECF809181
:10062000620088608093620080916200877F80937F
:1006300062008FE19EE40197F1F700C000001FB84F
:10064000779BFECF88E08FB9779BFECF80916200C9
:1006500088608093620080916200877F809362004F
:100660008FE19EE40197F1F700C000001FB8779B6F
:10067000FECF81E08FB9779BFECF809162008860CA
:100680008093620080916200877F809362008FE197
:100690009EE40197F1F700C000001FB8779BFECFE2
:1006A00086E08FB9779BFECF80916200886080934F
:1006B000620080916200877F809362008FE19EE4F8
:1006C0000197F1F700C000001FB8779BFECF8CE0C8
:1006D0008FB9779BFECF8091620088608093620023
:1006E00080916200877F809362008FE19EE4019792
:1006F000F1F700C0000008956F927F928F929F9251
:10070000AF92BF92CF92DF92EF92FF920F931F931F
:10071000CF93DF93CDB7DEB769970FB6F894DEBFFE
:100720000FBECDBFF42E122F002359F04B015C01F8
:100730008824B7FC83949924AA24BB24082D97FD10
:10074000AFC011117DC09E012F5F3F4F69012AE0AC
:1007500030E040E050E00E943206F62F2A8B3B8BBF
:100760004C8B5D8B6E8B7F8B888F998F6A897B8991
:100770008C899D89E1E0E10FD601A10FB11DF05DEB
:10078000FC931E2F611571058105910501F7FF206E
:10079000E1F020E3E11001C020E2EF15B0F44E2FAC
:1007A00050E0D601A40FB51F82E090E08C0F9D1F92
:1007B000480F591F8FEF8F0D8E1B840F952F911DA2
:1007C0002D93A817B907E1F7EF2D002331F0D601DB
:1007D000AE0FB11D8DE28C93EF5FE150F0E03196EA
:1007E000EC0DFD1D91E082919FB9779BFECF8FB9F3
:1007F000779BFECF80916200886080936200809139
:100800006200877F80936200A5EDAA95F1F7000052
:10081000CE16DF0641F769960FB6F894DEBF0FBE1D
:10082000CDBFDF91CF911F910F91FF90EF90DF909F
:10083000CF90BF90AF909F908F907F906F900895D2
:10084000DE0111966D014D015D01BFEFAB1ABB0AD0
:1008500066246A94610E6A0C7B2C711C04C095019D
:100860002F5F3F4F59012AE030E040E050E00E9406
:100870003206E62F2A8B3B8B4C8B5D8B6A897B89FA
:100880008C899D89E05DD401EC934501A614B704E1
:1008900031F7F601E10FF11D2EE220831F5F57CFE4
:1008A00090958095709561957F4F8F4F9F4F49CF61
:1008B0005F926F927F928F929F92AF92BF92CF92F0
:1008C000DF92EF92FF920F931F93CF93DF93CDB7F9
:1008D000DEB761970FB6F894DEBF0FBECDBF4C01F7
:1008E000562E142F9C0197FF04C022273327281B64
:1008F000390B111128C0AE014F5F5F4F7A0101C063
:100900001A2F6AE070E0C9010E94FC05462F242FCF
:10091000372FA1E0A10FF701E10FF11D805D80836A
:100920002115310569F7011137C097FC8EC055209C
:1009300041F08A2F90E0252D30E040E2A51508F423
:1009400079C0EA2F38C0CE0101967C016C013C01D0
:100950009FEF691A790AAA24AA94A10EA60CB72CB3
:10096000B11C04C0A3014F5F5F4F3A016AE070E021
:10097000C9010E94FC05462F242F372F805DF60108
:1009800080836301A614B70469F7F701E10FF11D35
:100990008EE280831F5FB5CF092D001F0027001F47
:1009A00051103DC0002369F2E1E0EA0FAE0DBF2D0A
:1009B000B11D8DE28C93E150F0E03196EE0DFF1DFC
:1009C00091E082919FB9779BFECF8FB9779BFECF45
:1009D0008091620088608093620080916200877FCE
:1009E0008093620045ED4A95F1F70000EE16FF0690
:1009F00041F761960FB6F894DEBF0FBECDBFDF9111
:100A0000CF911F910F91FF90EF90DF90CF90BF900B
:100A1000AF909F908F907F906F905F9008958A2FF6
:100A200090E0E52DE01BFF0B9F0140E38E179F0731
:100A30000CF0B8CFAF5F8E0D9F1DFC0140838A2F55
:100A400090E082179307B4F3ADCFE2E0E10FAE0D73
:100A5000BF2DB11D8DE28C93552009F4ACCF8E2FA4
:100A600090E0252D30E0AE2F40E28217930714F37B
:100A7000A2CF87B3876087BB80E58DB981E08EB94F
:100A80000E94BA02BF9AC79811BA0E94050284E078
:100A900091E00E948D020E94350282E191E00E9465
:100AA0008D022FEF81EE94E0215080409040E1F7DD
:100AB00000C0000080B38F3FE9F3C1E0D7E044E419
:100AC000E42EF12C14E05DE7852E912CA12CB12CA5
:100AD0000E94BA0282E191E00E948D020E943502DA
:100AE00083E291E00E948D0213BE17BEC6BFD3BF42
:100AF0000E94B006B7010E94FC0566587F4F06B6FB
:100B000000FEFDCFC6BF61507109C9F713BE1EBC00
:100B10001FBC17BE10927D0016BF1DBC1CBC8EB53D
:100B200085608EBDC79A03C080B38F3F19F406B6A7
:100B300002FEFACF6CB57DB51EBCC79890E080E090
:100B4000660F771F881F991F660F771F881F991FD1
:100B5000660F771F881F991FA50194010E94100638
:100B600029013A010E94050206B602FC05C04114A3
:100B700051046104710461F106B602FC1EC089E4EF
:100B800091E00E948D020E94350200E020E040E0EA
:100B900063E0C2010E94580484E591E00E948D0246
:100BA0002FEF85EA9EE0215080409040E1F700C0A1
:100BB000000080B38F3FE9F38BCF88E591E00E947E
:100BC0008D020E94350288E691E00E948D02E8CFF6
:100BD00084E391E00E948D020E94350282E491E05C
:100BE0000E948D022FEF83ED90E3215080409040D2
:100BF000E1F700C00000D4CF97FB072E16F4009455
:100C000007D077FD09D00E94510607FC05D03EF4BD
:100C1000909581959F4F0895709561957F4F0895A8
:100C2000A1E21A2EAA1BBB1BFD010DC0AA1FBB1FF0
:100C3000EE1FFF1FA217B307E407F50720F0A21B62
:100C4000B30BE40BF50B661F771F881F991F1A94CF
:100C500069F760957095809590959B01AC01BD01F9
:100C6000CF010895052E97FB1EF400940E944906BB
:100C700057FD07D00E94100607FC03D04EF40C94D9
:100C8000490650954095309521953F4F4F4F5F4F06
:100C9000089590958095709561957F4F8F4F9F4FE8
:100CA0000895AA1BBB1B51E107C0AA1FBB1FA617B3
:100CB000B70710F0A61BB70B881F991F5A95A9F705
:100CC00080959095BC01CD0108958F929F92AF922F
:100CD000BF92CF92DF92EF92FF92CF93DF93EC011E
:100CE000688179818A819B816115710581059105F2
:100CF00021F464E279ED8BE597E02DE133EF41E0FB
:100D000050E00E94320649015A019B01AC01A7EA5A
:100D1000B1E40E94BF066B017C01ACEEB4EFA5010B
:100D200094010E94CD06DC01CB018C0D9D1DAE1DF2
:100D3000BF1DB7FF03C00197A109B04888839983FD
:100D4000AA83BB839F77DF91CF91FF90EF90DF90D5
:100D5000CF90BF90AF909F908F9008950C946506B0
:100D600080E091E00C946506B0E0A0E08093000183
:100D700090930101A0930201B093030108950E9492
:100D8000D206A59F900DB49F900DA49F800D911D3C
:100D900011240895B7FF0C94BF060E94BF06821B62
:100DA000930B0895A29FB001B39FC001A39F700D44
:100DB000811D1124911DB29F700D811D1124911D63
:060DC0000895F894FFCF36
:100DC600010000005245464C4558205445535445B1
:100DD6005200507265737320616E79206275747467
:100DE6006F6E006166746572204C4544206C6967BD
:100DF600687473004E6F206368656174696E67215D
:100E0600210052657472793F00596F7572207469BA
:100E16006D653A00206D73002054696D657220651A
:100E26007870697265642E005072657373206274FF
:0A0E36006E20746F207273740000C8
:00000001FF
