:100000000C9446000C9465000C9465000C946500FB
:100010000C9465000C9465000C9465000C946500CC
:100020000C9465000C9465000C9465000C946500BC
:100030000C9465000C9465000C9465000C946500AC
:100040000C9465000C9465000C946F000C94650092
:100050000C9465000C9465000C9465000C9465008C
:100060000C9465000C9465000C9465000C9465007C
:100070000C9465000C9465000C9465000C9465006C
:100080000C9465000C9465000C94650011241FBE4F
:10009000CFEFD0E1DEBFCDBF11E0A0E0B1E0EAE9F3
:1000A000FDE000E00BBF02C007900D92AE30B1073B
:1000B000D9F721E0AEE0B1E001C01D92A73FB20741
:1000C000E1F70E94D3050C94CB060C94000087B393
:1000D000876087BB8DB180658DB9709A08951F9236
:1000E0000F920FB60F9211240BB60F928F939F931E
:1000F000EF93FF938CB180932601E0910F0191E083
:100100009E0F90930F01F0E0EA5EFE4F8083811115
:1001100009C081E08093110180E280838183828322
:1001200010920F01FF91EF919F918F910F900BBE55
:100130000F900FBE0F901F9018955D9BFECF8CB94E
:100140005D9BFECF089590919B0095FFFCCF80931F
:100150009C0080919B0085FFFCCF0895FC0190815D
:10016000992349F031965D9BFECF9CB95D9BFECFF4
:1001700091919111F8CF0895FC012081222371F013
:10018000319690919B0095FFFCCF20939C0090911D
:100190009B0095FFFCCF21912111F3CF08959C0185
:1001A000FC014491442369F00196F90124915D9B7F
:1001B000FECF2CB95D9BFECF9C01FC014491411107
:1001C000F3CF08958AB188698AB9E5E9F0E08081C2
:1001D000866080831092900087E689B90895EAE9E5
:1001E000F0E0808188618083EDE9F0E080818660C5
:1001F00080831092980087E680939900089580E8A4
:100200009EE302C0019721F05F9BFCCF8CB1089563
:1002100080E0089580E89EE302C0019739F02091C4
:100220009B0027FFFACF80919C00089580E00895FD
:1002300091E0811101C090E09FB9779BFECF6FB92B
:10024000779BFECF809162008860809362008091EE
:100250006200877F80936200089520911001820FD1
:10026000911DFC01808191E09FB9779BFECF8FB9F2
:10027000779BFECF809162008860809362008091BE
:100280006200877F80936200809110018F5F80936E
:1002900010018031D9F0803209F0089585ED8A95FA
:1002A000F1F700001FB8779BFECF80E88FB9779BEE
:1002B000FECF80916200886080936200809162002E
:1002C000877F80936200109210010895F5EDFA95F2
:1002D000F1F700001FB8779BFECF80EC8FB9779BBA
:1002E000FECF8091620088608093620080916200FE
:1002F000877F8093620080911001CDCF660F660FDB
:10030000660F605C1FB8779BFECF6FB9779BFECFFF
:100310002091620028602093620020916200277F74
:100320002093620025ED2A95F1F70000FC019C0165
:10033000285F3F4F91E081919FB9779BFECF8FB9A6
:10034000779BFECF809162008860809362008091ED
:100350006200877F8093620085ED8A95F1F7000047
:10036000E217F30741F708958D5F8295880F880F94
:10037000807C6058680F1FB8779BFECF6FB9779B62
:10038000FECF80916200886080936200809162005D
:10039000877F809362000895811113C081E08FB937
:1003A000779BFECF80E38FB9779BFECF8091620071
:1003B00088608093620080916200877F80936200F2
:1003C00008958436C0F48A3070F59DEC899F912D94
:1003D0001124969596959695292F220F220F920F0C
:1003E000990F891B805D91E09FB9779BFECF8FB9F4
:1003F000779BFECFDBCF99E2899F912D11249295B7
:100400009F70905D21E02FB9779BFECF9FB9779BBE
:10041000FECF90916200986090936200909162008C
:10042000977F9093620099E2899F912D1124929574
:100430009F70382F24E6929F301911242DEC329FA3
:10044000912D1124969596959695905D21E02FB962
:10045000779BFECF9FB9779BFECF9091620098600B
:100460009093620090916200977F90936200ADCF6D
:1004700087FF19C091E09FB9779BFECF9DE29FB99E
:10048000779BFECF9091620098609093620090916C
:100490006200977F9093620095ED9A95F1F70000C6
:1004A00081950C94CC010C94CC011FB8779BFECFA6
:1004B0008EE08FB9779BFECF809162008860809339
:1004C000620080916200877F8093620008951FB868
:1004D000779BFECF8CE08FB9779BFECF8091620037
:1004E00088608093620080916200877F80936200C1
:1004F00008951FB8779BFECF8EE18FB9779BFECF13
:100500008091620088608093620080916200877FA2
:100510008093620008951FB8779BFECF88E18FB962
:10052000779BFECF8091620088608093620080910B
:100530006200877F809362000895E2E6F0E08081A8
:10054000886080838081877F808308951FB8779B30
:10055000FECF81E08FB9779BFECF809162008860EB
:100560008093620080916200877F809362008FE1B8
:100570009CE10197F1F700C0000008951FB8779B38
:10058000FECF82E08FB9779BFECF809162008860BA
:100590008093620080916200877F809362008FE683
:1005A00097E10197F1F700C0000008951FB8779B0D
:1005B000FECF80EC8FB9779BFECF80916200886080
:1005C0008093620080916200877F8093620008952B
:1005D0001FB8779BFECF80E88FB9779BFECF8091C5
:1005E000620088608093620080916200877F8093C0
:1005F0006200089590E131E020E23FB9779BFECFA1
:100600002FB9779BFECF8091620088608093620053
:1006100080916200877F8093620085ED8A95F1F773
:100620000000915051F7089591E09FB9779BFECF5C
:100630008FB9779BFECF80916200886080936200C3
:1006400080916200877F809362000895FC0160E0E2
:1006500050E040E071E04E0F5F1FDA018C917FB9EE
:10066000779BFECF8FB9779BFECF90916200986009
:100670009093620090916200977F90936200B5ED35
:10068000BA95F1F700006F5F462F50E0DF010D9043
:100690000020E9F79D012E1B3F0B22503109241742
:1006A0003507C8F608958FEF99EF0197F1F700C06D
:1006B000000088E0809361001FB8779BFECF80E345
:1006C0008FB9779BFECF8091620088608093620033
:1006D00080916200877F809362008FE59DE601979D
:1006E000F1F700C000001FB8779BFECF80E38FB901
:1006F000779BFECF8091620088608093620080913A
:100700006200877F809362008FE59DE60197F1F795
:1007100000C000001FB8779BFECF80E38FB9779BA6
:10072000FECF8091620088608093620080916200B9
:10073000877F809362008FE59DE60197F1F700C007
:1007400000001FB8779BFECF88E38FB9779BFECF61
:100750008091620088608093620080916200877F50
:10076000809362008FE19EE40197F1F700C00000E2
:100770001FB8779BFECF88E08FB9779BFECF809123
:10078000620088608093620080916200877F80931E
:1007900062008FE19EE40197F1F700C000001FB8EE
:1007A000779BFECF81E08FB9779BFECF809162006F
:1007B00088608093620080916200877F80936200EE
:1007C0008FE19EE40197F1F700C000001FB8779B0E
:1007D000FECF86E08FB9779BFECF80916200886064
:1007E0008093620080916200877F809362008FE136
:1007F0009EE40197F1F700C000001FB8779BFECF81
:100800008CE08FB9779BFECF8091620088608093E7
:10081000620080916200877F809362008FE19EE496
:100820000197F1F700C0000008956F927F928F92B8
:100830009F92AF92BF92CF92DF92EF92FF920F936F
:100840001F93CF93DF93CDB7DEB769970FB6F894B8
:10085000DEBF0FBECDBFF42E122F002359F04B0187
:100860005C018824B7FC83949924AA24BB24082D16
:1008700097FDAFC011117DC09E012F5F3F4F6901F1
:100880002AE030E040E050E00E944106F62F2A8B3B
:100890003B8B4C8B5D8B6E8B7F8B888F998F6A899E
:1008A0007B898C899D89E1E0E10FD601A10FB11D03
:1008B000F05DFC931E2F611571058105910501F70F
:1008C000FF20E1F020E3E11001C020E2EF15B0F4D9
:1008D0004E2F50E0D601A40FB51F82E090E08C0FA0
:1008E0009D1F480F591F8FEF8F0D8E1B840F952F63
:1008F000911D2D93A817B907E1F7EF2D002331F0D3
:10090000D601AE0FB11D8DE28C93EF5FE150F0E0A8
:100910003196EC0DFD1D91E082919FB9779BFECF42
:100920008FB9779BFECF80916200886080936200D0
:1009300080916200877F80936200A5EDAA95F1F710
:100940000000CE16DF0641F769960FB6F894DEBFB9
:100950000FBECDBFDF91CF911F910F91FF90EF9010
:10096000DF90CF90BF90AF909F908F907F906F90CF
:100970000895DE0111966D014D015D01BFEFAB1AC7
:10098000BB0A66246A94610E6A0C7B2C711C04C03D
:1009900095012F5F3F4F59012AE030E040E050E0E1
:1009A0000E944106E62F2A8B3B8B4C8B5D8B6A891C
:1009B0007B898C899D89E05DD401EC934501A61467
:1009C000B70431F7F601E10FF11D2EE220831F5F1E
:1009D00057CF90958095709561957F4F8F4F9F4F22
:1009E00049CF5F926F927F928F929F92AF92BF9208
:1009F000CF92DF92EF92FF920F931F93CF93DF93EB
:100A0000CDB7DEB761970FB6F894DEBF0FBECDBF8E
:100A10003C01562E142F022F9C0197FF04C0222761
:100A20003327281B390B111128C0AE014F5F5F4FD0
:100A30007A0101C01A2F6AE070E0C9010E942D06F8
:100A4000462F242F372FA1E0A10FF701E10FF11D51
:100A5000805D80832115310569F7011137C077FC6E
:100A60008EC0552041F08A2F90E0252D30E040E2E5
:100A7000A51508F479C0EA2F38C0CE0101967C0193
:100A80005C016C019FEFC91AD90A88248A94810EEF
:100A90008C0C9D2C911C04C0A6014F5F5F4F6A0116
:100AA0006AE070E0C9010E942D06462F242F372FDF
:100AB000805DF501808356018C149D0469F7F70170
:100AC000E10FF11D8EE280831F5FB5CF072D001F60
:100AD0000027001F51103DC0002369F2E1E0EA0F3A
:100AE000AE0DBF2DB11D8DE28C93E150F0E031963B
:100AF000EE0DFF1D91E082919FB9779BFECF8FB9DC
:100B0000779BFECF80916200886080936200809125
:100B10006200877F8093620045ED4A95F1F70000FF
:100B2000EE16FF0641F761960FB6F894DEBF0FBED2
:100B3000CDBFDF91CF911F910F91FF90EF90DF908C
:100B4000CF90BF90AF909F908F907F906F905F906D
:100B500008958A2F90E0E52DE01BFF0B9F0140E3F5
:100B60008E179F070CF0B8CFAF5F8E0D9F1DFC0155
:100B700040838A2F90E082179307B4F3ADCFE2E071
:100B8000E10FAE0DBF2DB11D8DE28C93552009F400
:100B9000ACCF8E2F90E0252D30E0AE2F40E28217B3
:100BA000930714F3A2CF8091610088608093610065
:100BB0000E94E20087B3876087BB8DB180658DB9E5
:100BC000709A0E9453030E94A6020E94BE0278946B
:100BD000DDECC4E1809111018130B1F180E091E060
:100BE0000E94AE0080910E014AE063E171E090E066
:100BF0000E94960683E191E00E94AE0080E00E9490
:100C00009D00109212012FEF81EE94E02150804060
:100C10009040E1F700C00000809112018F5F809347
:100C200012018A3080F380910E018F5F8D9F912D8C
:100C3000112492959F709C9F8019112480930E011E
:100C400080911101813051F686E191E00E942603E6
:100C5000109211010E94BE02C1CF97FB072E16F41D
:100C6000009407D077FD09D00E94600607FC05D0EC
:100C70003EF4909581959F4F0895709561957F4FB3
:100C80000895052E97FB1EF400940E94580657FD08
:100C900007D00E94740607FC03D04EF40C9458064B
:100CA00050954095309521953F4F4F4F5F4F089598
:100CB00090958095709561957F4F8F4F9F4F0895C8
:100CC000AA1BBB1B51E107C0AA1FBB1FA617B70772
:100CD00010F0A61BB70B881F991F5A95A9F780958E
:100CE0009095BC01CD010895A1E21A2EAA1BBB1B51
:100CF000FD010DC0AA1FBB1FEE1FFF1FA217B307E8
:100D0000E407F50720F0A21BB30BE40BF50B661FFD
:100D1000771F881F991F1A9469F7609570958095C1
:100D200090959B01AC01BD01CF010895BB274A30CE
:100D300031F4992322F4BDE2909581959F4F0C9454
:100D4000A206BB27FB015527AA27880F991FAA1FB8
:100D5000A41710F0A41B83955051B9F7A05DAA33D6
:100D600008F0A95DA193009779F7B111B1931192A1
:100D7000CB010C94BB06DC01FC01672F719177233A
:100D8000E1F7329704C07C916D9370836291AE1746
:0A0D9000BF07C8F30895F894FFCFE1
:0E0D9A004869212044696C626572743A200039
:00000001FF
