:100000000C9446000C9458000C9458000C94580022
:100010000C9458000C9458000C9458000C94580000
:100020000C9458000C9458000C9458000C945800F0
:100030000C9458000C9458000C9458000C945800E0
:100040000C9458000C9458000C9458000C945800D0
:100050000C9458000C9458000C9458000C945800C0
:100060000C9458000C9458000C9458000C945800B0
:100070000C9458000C9458000C9458000C945800A0
:100080000C9458000C941D050C94580011241FBEAC
:10009000CFEFD0E1DEBFCDBF21E0A0E0B1E001C0F5
:1000A0001D92AC33B207E1F70E9424060C941107AD
:1000B0000C94000087B3876087BB80E58DB981E031
:1000C0008EB9089591E0811101C090E09FB9779BAE
:1000D000FECF6FB9779BFECF8091620088608093DE
:1000E000620080916200877F809362000895209172
:1000F0000001820F911DFC01808191E09FB9779BE7
:10010000FECF8FB9779BFECF80916200886080938D
:10011000620080916200877F80936200809100017D
:100120008F5F809300018031D9F0803209F008950B
:1001300085ED8A95F1F700001FB8779BFECF80E828
:100140008FB9779BFECF80916200886080936200B8
:1001500080916200877F8093620010920001089571
:10016000F5EDFA95F1F700001FB8779BFECF80EC14
:100170008FB9779BFECF8091620088608093620088
:1001800080916200877F8093620080910001CDCFD3
:10019000660F660F660F605C1FB8779BFECF6FB966
:1001A000779BFECF2091620028602093620020910F
:1001B0006200277F2093620025ED2A95F1F7000069
:1001C000FC019C01285F3F4F91E081919FB9779B93
:1001D000FECF8FB9779BFECF8091620088608093BD
:1001E000620080916200877F8093620085ED8A952E
:1001F000F1F70000E217F30741F708958D5F82954C
:10020000880F880F807C6058680F1FB8779BFECFDF
:100210006FB9779BFECF8091620088608093620007
:1002200080916200877F809362000895811113C0DE
:1002300081E08FB9779BFECF80E38FB9779BFECFAC
:100240008091620088608093620080916200877F65
:100250008093620008958436C0F48A3070F59DEC76
:10026000899F912D1124969596959695292F220F69
:10027000220F920F990F891B805D91E09FB9779BA8
:10028000FECF8FB9779BFECFDBCF99E2899F912D6F
:10029000112492959F70905D21E02FB9779BFECF3E
:1002A0009FB9779BFECF9091620098609093620017
:1002B00090916200977F9093620099E2899F912DBF
:1002C000112492959F70382F24E6929F30191124A3
:1002D0002DEC329F912D1124969596959695905DD3
:1002E00021E02FB9779BFECF9FB9779BFECF9091EE
:1002F000620098609093620090916200977F909363
:100300006200ADCF87FF19C091E09FB9779BFECF08
:100310009DE29FB9779BFECF909162009860909389
:10032000620090916200977F9093620095ED9A959C
:10033000F1F7000081950C9416010C9416011FB87A
:10034000779BFECF8EE08FB9779BFECF80916200C6
:1003500088608093620080916200877F8093620052
:1003600008951FB8779BFECF8CE08FB9779BFECFA7
:100370008091620088608093620080916200877F34
:100380008093620008951FB8779BFECF8EE18FB9EE
:10039000779BFECF8091620088608093620080919D
:1003A0006200877F8093620008951FB8779BFECF1D
:1003B00088E18FB9779BFECF80916200886080933F
:1003C000620080916200877F809362000895E2E678
:1003D000F0E08081886080838081877F80830895BA
:1003E0001FB8779BFECF81E08FB9779BFECF8091BE
:1003F000620088608093620080916200877F8093B2
:1004000062008FE19CE10197F1F700C000000895C0
:100410001FB8779BFECF82E08FB9779BFECF80918C
:10042000620088608093620080916200877F809381
:1004300062008FE697E10197F1F700C00000089590
:100440001FB8779BFECF80EC8FB9779BFECF809152
:10045000620088608093620080916200877F809351
:10046000620008951FB8779BFECF80E88FB9779B15
:10047000FECF80916200886080936200809162006C
:10048000877F80936200089590E131E020E23FB9D8
:10049000779BFECF2FB9779BFECF8091620088605B
:1004A0008093620080916200877F8093620085ED77
:1004B0008A95F1F70000915051F7089591E09FB9A6
:1004C000779BFECF8FB9779BFECF809162008860CB
:1004D0008093620080916200877F8093620008951C
:1004E000FC0160E050E040E071E04E0F5F1FDA0178
:1004F0008C917FB9779BFECF8FB9779BFECF909180
:10050000620098609093620090916200977F909350
:100510006200B5EDBA95F1F700006F5F462F50E02D
:10052000DF010D900020E9F79D012E1B3F0B2250AB
:10053000310924173507C8F608958FEF99EF019711
:10054000F1F700C0000088E0809361001FB8779B3E
:10055000FECF80E38FB9779BFECF809162008860E9
:100560008093620080916200877F809362008FE5B4
:100570009DE60197F1F700C000001FB8779BFECF02
:1005800080E38FB9779BFECF809162008860809373
:10059000620080916200877F809362008FE59DE614
:1005A0000197F1F700C000001FB8779BFECF80E3F2
:1005B0008FB9779BFECF8091620088608093620044
:1005C00080916200877F809362008FE59DE60197AE
:1005D000F1F700C000001FB8779BFECF88E38FB90A
:1005E000779BFECF8091620088608093620080914B
:1005F0006200877F809362008FE19EE40197F1F7AC
:1006000000C000001FB8779BFECF88E08FB9779BB2
:10061000FECF8091620088608093620080916200CA
:10062000877F809362008FE19EE40197F1F700C01D
:1006300000001FB8779BFECF81E08FB9779BFECF7C
:100640008091620088608093620080916200877F61
:10065000809362008FE19EE40197F1F700C00000F3
:100660001FB8779BFECF86E08FB9779BFECF809136
:10067000620088608093620080916200877F80932F
:1006800062008FE19EE40197F1F700C000001FB8FF
:10069000779BFECF8CE08FB9779BFECF8091620075
:1006A00088608093620080916200877F80936200FF
:1006B0008FE19EE40197F1F700C0000008956F926A
:1006C0007F928F929F92AF92BF92CF92DF92EF92E2
:1006D000FF920F931F93CF93DF93CDB7DEB7699748
:1006E0000FB6F894DEBF0FBECDBFF42E122F00233D
:1006F00059F04B015C018824B7FC83949924AA2407
:10070000BB24082D97FDAFC011117DC09E012F5F46
:100710003F4F69012AE030E040E050E00E947E0651
:10072000F62F2A8B3B8B4C8B5D8B6E8B7F8B888F50
:10073000998F6A897B898C899D89E1E0E10FD601D7
:10074000A10FB11DF05DFC931E2F61157105810590
:10075000910501F7FF20E1F020E3E11001C020E264
:10076000EF15B0F44E2F50E0D601A40FB51F82E074
:1007700090E08C0F9D1F480F591F8FEF8F0D8E1B20
:10078000840F952F911D2D93A817B907E1F7EF2D31
:10079000002331F0D601AE0FB11D8DE28C93EF5FD7
:1007A000E150F0E03196EC0DFD1D91E082919FB992
:1007B000779BFECF8FB9779BFECF809162008860D8
:1007C0008093620080916200877F80936200A5ED34
:1007D000AA95F1F70000CE16DF0641F769960FB62D
:1007E000F894DEBF0FBECDBFDF91CF911F910F9167
:1007F000FF90EF90DF90CF90BF90AF909F908F9041
:100800007F906F900895DE0111966D014D015D019D
:10081000BFEFAB1ABB0A66246A94610E6A0C7B2C8C
:10082000711C04C095012F5F3F4F59012AE030E051
:1008300040E050E00E947E06E62F2A8B3B8B4C8BDB
:100840005D8B6A897B898C899D89E05DD401EC93FD
:100850004501A614B70431F7F601E10FF11D2EE2B0
:1008600020831F5F57CF90958095709561957F4F3E
:100870008F4F9F4F49CF5F926F927F928F929F923F
:10088000AF92BF92CF92DF92EF92FF920F931F939E
:10089000CF93DF93CDB7DEB761970FB6F894DEBF85
:1008A0000FBECDBF3C01562E142F022F9C0197FF87
:1008B00004C022273327281B390B111128C0AE0191
:1008C0004F5F5F4F7A0101C01A2F6AE070E0C901E3
:1008D0000E946A06462F242F372FA1E0A10FF701AF
:1008E000E10FF11D805D80832115310569F701114C
:1008F00037C077FC8EC0552041F08A2F90E0252D1F
:1009000030E040E2A51508F479C0EA2F38C0CE01E6
:1009100001967C015C016C019FEFC91AD90A8824F9
:100920008A94810E8C0C9D2C911C04C0A6014F5FF3
:100930005F4F6A016AE070E0C9010E946A06462FB3
:10094000242F372F805DF501808356018C149D0480
:1009500069F7F701E10FF11D8EE280831F5FB5CFCC
:10096000072D001F0027001F51103DC0002369F212
:10097000E1E0EA0FAE0DBF2DB11D8DE28C93E15089
:10098000F0E03196EE0DFF1D91E082919FB9779BCB
:10099000FECF8FB9779BFECF8091620088608093F5
:1009A000620080916200877F8093620045ED4A95E6
:1009B000F1F70000EE16FF0641F761960FB6F894C6
:1009C000DEBF0FBECDBFDF91CF911F910F91FF9082
:1009D000EF90DF90CF90BF90AF909F908F907F90DF
:1009E0006F905F9008958A2F90E0E52DE01BFF0B3C
:1009F0009F0140E38E179F070CF0B8CFAF5F8E0DBD
:100A00009F1DFC0140838A2F90E082179307B4F367
:100A1000ADCFE2E0E10FAE0DBF2DB11D8DE28C93A5
:100A2000552009F4ACCF8E2F90E0252D30E0AE2F6D
:100A300040E28217930714F3A2CF1F920F920FB6D2
:100A40000F9211240BB60F922F938F939F93EF93D6
:100A5000FF93E0917100E850E13598F080917100CA
:100A60008093370184E080937400FF91EF919F9110
:100A70008F912F910F900BBE0F900FBE0F901F9074
:100A80001895F0E0EA5BFA4F0C949D06A7052E0539
:100A90002E052E052E052E052E052E05A7052E0545
:100AA0002E052E052E052E052E052E05B1052E052B
:100AB0002E052E052E052E052E052E052E052E059E
:100AC0002E052E052E052E052E052E05B1052E050B
:100AD0002E052E052E052E052E052E052E052E057E
:100AE0002E052E052E052E052E052E05C9052E05D3
:100AF0002E052E052E052E052E052E05CD052E05BF
:100B00002E052E052E052E052E052E052E052E054D
:100B10002E052E052E052E052E052E05DA052E0591
:100B20002E052E052E052E052E052E059705E09186
:100B300001018091380190913901E80FF92FF11DE1
:100B400080917300808384E9809374008ECF8091BC
:100B50003A01809373001092010185E8809374003C
:100B600084CFE091010180913B01E81760F780910B
:100B700038019091390121E02E0F20930101E80FF7
:100B8000F92FF11D80818093730085E880937400B4
:100B90006CCF85EA8093740068CF20910101809129
:100BA0003B018150990B28171906DCF485EC8093E2
:100BB00074005BCF8091380190913901E09101017F
:100BC00021E02E0F20930101E80FF92FF11D8091F4
:100BD0007300808380913B018150990B281719067F
:100BE0002CF385E88093740040CF8091740081706D
:100BF00008959091740090FDFCCF8E7F80933A0110
:100C0000709339016093380140933B0185EA8093EA
:100C1000740008959091740090FDFCCF81608093E2
:100C20003A01709339016093380140933B0185EAA2
:100C30008093740008958FEF809373001092710079
:100C40008CE080937000089587B3876087BB80E550
:100C50008DB981E08EB90E949D020E941B06789496
:100C60001092330141E063E371E080E90E94F905ED
:100C70008FE39FE10197F1F700C000000E94F001AF
:100C80009FEF21EE84E0915020408040E1F700C0CA
:100C900000000E94F00142E065E371E080E90E94FB
:100CA0000A068FE39FE10197F1F700C000008091F1
:100CB0003501909136019827892798274AE063E00B
:100CC00071E0892F90E00E94DC0683E091E00E94B1
:100CD0007002D6CF97FB072E16F4009407D077FD4D
:100CE00009D00E94A60607FC05D03EF49095819598
:100CF0009F4F0895709561957F4F0895052E97FB3E
:100D00001EF400940E94950657FD07D00E94BA0673
:100D100007FC03D04EF40C94950650954095309501
:100D200021953F4F4F4F5F4F089590958095709557
:100D300061957F4F8F4F9F4F0895EE0FFF1F002447
:100D4000001C0BBE0790F691E02D0994AA1BBB1B5B
:100D500051E107C0AA1FBB1FA617B70710F0A61BBB
:100D6000B70B881F991F5A95A9F780959095BC01DC
:100D7000CD010895A1E21A2EAA1BBB1BFD010DC0D7
:100D8000AA1FBB1FEE1FFF1FA217B307E407F5073B
:100D900020F0A21BB30BE40BF50B661F771F881F17
:100DA000991F1A9469F760957095809590959B01AD
:100DB000AC01BD01CF010895BB274A3031F499231E
:100DC00022F4BDE2909581959F4F0C94E806BB27D5
:100DD000FB015527AA27880F991FAA1FA41710F0F7
:100DE000A41B83955051B9F7A05DAA3308F0A95D03
:100DF000A193009779F7B111B1931192CB010C94A3
:100E00000107DC01FC01672F71917723E1F732972D
:100E100004C07C916D9370836291AE17BF07C8F3D5
:060E20000895F894FFCFD5
:00000001FF
