S00B00006164632E73726563F1
S11300000C9446000C9458000C9458000C9458001E
S11300100C9458000C9458000C9458000C945800FC
S11300200C9458000C9458000C9458000C945800EC
S11300300C9458000C9458000C9458000C945800DC
S11300400C9458000C9458000C9458000C945800CC
S11300500C9458000C9458000C9458000C945800BC
S11300600C9458000C9458000C9458000C945800AC
S11300700C9458000C9458000C9458000C9458009C
S11300800C9458000C9458000C94580011241FBE72
S1130090CFEFD0E1DEBFCDBF21E0A0E0B1E001C0F1
S11300A01D92A434B207E1F70E9471050C945C061A
S11300B00C940000E1E6F0E0808188608083E2E651
S11300C0F0E08081877F808387B3876087BB80E58A
S11300D08DB981E08EB9089591E0811101C090E05D
S11300E09FB9779BFECF6FB9779BFECF809162005B
S11300F088608093620080916200877F80936200B1
S11301008FE99FE00197F1F700C00000089521E016
S11301102FB9779BFECFE0910001E80FF92FF11D75
S113012080818FB9779BFECF809162008860809335
S1130130620080916200877F809362008091000159
S11301408F5F80930001803109F1803209F00895B6
S113015095ED9A95F1F700001FB8779BFECF82E0EA
S11301608FB9779BFECF8091620088608093620094
S113017080916200877F809362008FE99FE00197FE
S1130180F1F700C0000010920001089585ED8A95F2
S1130190F1F700001FB8779BFECF80EC8FB9779BF7
S11301A0FECF80916200886080936200809162003B
S11301B0877F809362008FE99FE00197F1F700C089
S11301C0000080910001C1CF660F660F660F605C6E
S11301D01FB8779BFECF6FB9779BFECF209162004B
S11301E028602093620020916200277F20936200A0
S11301F0AFE9BFE01197F1F700C00000FC019C01DA
S1130200285F3F4F91E081919FB9779BFECF8FB9D3
S1130210779BFECF8091620088608093620080911A
S11302206200877F80936200AFE9BFE01197F1F726
S113023000C00000E217F30731F708958D5F82953F
S1130240880F880F807C6058680F1FB8779BFECF9B
S11302506FB9779BFECF80916200886080936200C3
S113026080916200877F809362008FE99FE001970D
S1130270F1F700C000000895811119C081E08FB921
S1130280779BFECF80E38FB9779BFECF809162008E
S113029088608093620080916200877F809362000F
S11302A08FE99FE00197F1F700C0000008958436BC
S11302B0C0F48A30A0F59DEC899F912D1124969568
S11302C096959695292F220F220F920F990F891B2D
S11302D0805D91E09FB9779BFECF8FB9779BFECF6E
S11302E0D5CF99E2899F912D112492959F70905DAD
S11302F021E02FB9779BFECF9FB9779BFECF9091DA
S1130300620098609093620090916200977F90934E
S11303106200EFE9FFE03197F1F700C0000099E2D5
S1130320899F912D112492959F70282FF4E69F9F09
S113033020191124922F2DEC929F912D1124969522
S113034096959695905D21E02FB9779BFECF9FB946
S1130350779BFECF90916200986090936200909199
S11303606200977F90936200EFE9FFE03197F1F725
S113037000C00000A0CF87FF1BC091E09FB9779B0E
S1130380FECF9DE29FB9779BFECF9091620098606B
S11303909093620090916200977F90936200EFE9DE
S11303A0FFE03197F1F700C0000081950C943C0107
S11303B00C943C011FB8779BFECF8EE08FB9779BDE
S11303C0FECF809162008860809362008091620019
S11303D0877F809362008FE99FE00197F1F700C067
S11303E0000008951FB8779BFECF8CE08FB9779BF0
S11303F0FECF8091620088608093620080916200E9
S1130400877F809362008FE99FE00197F1F700C036
S1130410000008951FB8779BFECF8EE18FB9779BBC
S1130420FECF8091620088608093620080916200B8
S1130430877F809362008FE99FE00197F1F700C006
S1130440000008951FB8779BFECF88E18FB9779B92
S1130450FECF809162008860809362008091620088
S1130460877F809362008FE99FE00197F1F700C0D6
S113047000000895E2E6F0E0808188608083808156
S1130480877F808308951FB8779BFECF81E08FB963
S1130490779BFECF80916200886080936200809198
S11304A06200877F809362008FE99FE00197F1F7F4
S11304B000C0000008951FB8779BFECF82E08FB97B
S11304C0779BFECF80916200886080936200809168
S11304D06200877F809362008FE99FE00197F1F7C4
S11304E000C0000008951FB8779BFECF80EC8FB941
S11304F0779BFECF80916200886080936200809138
S11305006200877F809362008FE99FE00197F1F793
S113051000C00000089590E131E020E23FB9779BEC
S1130520FECF2FB9779BFECF8091620088608093C5
S1130530620080916200877F80936200EFE9FFE0B0
S11305403197F1F700C00000915041F7089591E010
S11305509FB9779BFECF8FB9779BFECF80916200C6
S113056088608093620080916200877F809362003C
S11305708FE99FE00197F1F700C000000895FC01A6
S113058060E050E040E071E04E0F5F1FDA018C91B3
S11305907FB9779BFECF8FB9779BFECF9091620096
S11305A098609093620090916200977F90936200AC
S11305B08FE99FE00197F1F700C000006F5F462FBD
S11305C050E0DF010D900020E9F79D012E1B3F0B49
S11305D02250310924173507B8F608958FEF99EFA3
S11305E00197F1F700C0000088E0809361001FB814
S11305F0779BFECF80E38FB9779BFECF809162001B
S113060088608093620080916200877F809362009B
S11306108FE99FE00197F1F700C000001FB8779BB6
S1130620FECF80E38FB9779BFECF80916200886014
S11306308093620080916200877F809362008FE9DB
S11306409FE00197F1F700C000001FB8779BFECF31
S113065080E38FB9779BFECF80916200886080939E
S1130660620080916200877F809362008FE99FE03F
S11306700197F1F700C000001FB8779BFECF88E315
S11306808FB9779BFECF809162008860809362006F
S113069080916200877F809362008FE99FE00197D9
S11306A0F1F700C000001FB8779BFECF88E08FB938
S11306B0779BFECF80916200886080936200809176
S11306C06200877F809362008FE99FE00197F1F7D2
S11306D000C000001FB8779BFECF81E08FB9779BE5
S11306E0FECF8091620088608093620080916200F6
S11306F0877F809362008FE99FE00197F1F700C044
S113070000001FB8779BFECF86E08FB9779BFECFA2
S11307108091620088608093620080916200877F8C
S1130720809362008FE99FE00197F1F700C0000019
S11307301FB8779BFECF8CE08FB9779BFECF80915B
S1130740620088608093620080916200877F80935A
S113075062008FE99FE00197F1F700C0000008955F
S11307606F927F928F929F92AF92BF92CF92DF92BD
S1130770EF92FF920F931F93CF93DF93CDB7DEB722
S113078069970FB6F894DEBF0FBECDBFF42E122FBB
S1130790002359F04B015C018824B7FC839499240D
S11307A0AA24BB24082D97FDB1C011117FC09E015E
S11307B02F5F3F4F69012AE030E040E050E00E94A3
S11307C0D205F62F2A8B3B8B4C8B5D8B6E8B7F8BEC
S11307D0888F998F6A897B898C899D89E1E0E10FF3
S11307E0D601A10FB11DF05DFC931E2F611571059B
S11307F08105910501F7FF20E1F020E3E11001C03C
S113080020E2EF15B0F44E2F50E0D601A40FB51F2F
S113081082E090E08C0F9D1F480F591F8FEF8F0DC2
S11308208E1B840F952F911D2D93A817B907E1F7FF
S1130830EF2D002331F0D601AE0FB11D8DE28C9364
S1130840EF5FE150F0E03196EC0DFD1D91E08291F7
S11308509FB9779BFECF8FB9779BFECF80916200C3
S113086088608093620080916200877F8093620039
S1130870AFE9BFE01197F1F700C00000CE16DF0624
S113088031F769960FB6F894DEBF0FBECDBFDF9186
S1130890CF911F910F91FF90EF90DF90CF90BF9079
S11308A0AF909F908F907F906F900895DE01119686
S11308B06D014D015D01BFEFAB1ABB0A66246A945A
S11308C0610E6A0C7B2C711C04C095012F5F3F4F95
S11308D059012AE030E040E050E00E94D205E62FC2
S11308E02A8B3B8B4C8B5D8B6A897B898C899D8998
S11308F0E05DD401EC934501A614B70431F7F60189
S1130900E10FF11D2EE220831F5F55CF9095809556
S1130910709561957F4F8F4F9F4F47CF5F926F9236
S11309207F928F929F92AF92BF92CF92DF92EF927B
S1130930FF920F931F93CF93DF93CDB7DEB76197E9
S11309400FB6F894DEBF0FBECDBF3C01562E142F58
S1130950022F9C0197FF04C022273327281B390B41
S1130960111128C0AE014F5F5F4F7A0101C01A2FE9
S11309706AE070E0C9010E94BE05462F242F372F7C
S1130980A1E0A10FF701E10FF11D805D8083211526
S1130990310569F7011136C077FC8FC0552041F04D
S11309A08A2F90E0252D30E040E2A51508F47AC0A6
S11309B0EA2F37C0CE0101967C015C016C019FEFE8
S11309C0C91AD90A88248A94810E8C0C9D2C911CF6
S11309D003C0F60131966F016AE070E0C9010E941C
S11309E0BE05462F242F372F805DD5018C935601E9
S11309F08C149D0471F7F701E10FF11D8EE28083E1
S1130A001F5FB6CF072D001F0027001F51103FC0E6
S1130A10002371F2E1E0EA0FAE0DBF2DB11D8DE2AE
S1130A208C93E150F0E03196EE0DFF1D91E0829140
S1130A309FB9779BFECF8FB9779BFECF80916200E1
S1130A4088608093620080916200877F8093620057
S1130A50AFE9BFE01197F1F700C00000EE16FF0602
S1130A6031F761960FB6F894DEBF0FBECDBFDF91AC
S1130A70CF911F910F91FF90EF90DF90CF90BF9097
S1130A80AF909F908F907F906F905F9008958A2F82
S1130A9090E0452D401B550B9A0140E382179307C4
S1130AA00CF0B6CFAF5F8E0D9F1DFC0140838A2FE3
S1130AB090E082179307B4F3ABCFE2E0E10FAE0D01
S1130AC0BF2DB11D8DE28C93552009F4AACF8E2F32
S1130AD090E0252D30E0AE2F40E28217930714F307
S1130AE0A0CF809161008860809361008091620052
S1130AF0877F8093620087B3876087BB80E58DB969
S1130B0081E08EB90E94EE020E944302809161004E
S1130B108F7780936100809162008F778093620069
S1130B2087E487B987E886B9369A349BFECF349A2E
S1130B3084B195B190930201809301014AE064E08D
S1130B4071E00E94270684E091E00E94BF021092A7
S1130B5003012FEF80E792E0215080409040E1F7BD
S1130B6000C00000809103018F5F809303018B30EC
S1130B7080F30E9443020E945B02D6CF97FB072EAC
S1130B8016F4009407D077FD09D00E94F10507FC04
S1130B9005D03EF4909581959F4F08957095619589
S1130BA07F4F0895052E97FB1EF400940E94E905DB
S1130BB057FD07D00E94050607FC03D04EF40C94A1
S1130BC0E90550954095309521953F4F4F4F5F4F24
S1130BD0089590958095709561957F4F8F4F9F4FA5
S1130BE00895AA1BBB1B51E107C0AA1FBB1FA61770
S1130BF0B70710F0A61BB70B881F991F5A95A9F7C2
S1130C0080959095BC01CD010895A1E21A2EAA1BEE
S1130C10BB1BFD010DC0AA1FBB1FEE1FFF1FA217A8
S1130C20B307E407F50720F0A21BB30BE40BF50BA5
S1130C30661F771F881F991F1A9469F7609570952E
S1130C40809590959B01AC01BD01CF010895BB2710
S1130C504A3031F4992322F4BDE2909581959F4F57
S1130C600C943306BB27FB015527AA27880F991F2D
S1130C70AA1FA41710F0A41B83955051B9F7A05DC7
S1130C80AA3308F0A95DA193009779F7B111B19344
S1130C901192CB010C944C06DC01FC01672F71917D
S1130CA07723E1F7329704C07C916D93708362914E
S10F0CB0AE17BF07C8F30895F894FFCFF7
S9030000FC
