S01B00006261725F67726170685F64656D6F5F736B656C2E7372656351
S11300000C9446000C9465000C9465000C946500F7
S11300100C9465000C9465000C9465000C946500C8
S11300200C9465000C9465000C9465000C946500B8
S11300300C9465000C9465000C9465000C946500A8
S11300400C9479000C9465000C9465000C94650084
S11300500C9465000C9465000C9465000C94650088
S11300600C9465000C9465000C9465000C94650078
S11300700C9465000C9465000C9465000C94650068
S11300800C9465000C9465000C94650011241FBE4B
S1130090CFEFD0E1DEBFCDBF11E0A0E0B1E0E6E6F6
S11300A0F1E000E00BBF02C007900D92A230B1074F
S11300B0D9F721E0A2E0B1E001C01D92A330B2075C
S11300C0E1F70E949F000C94B1000C94000087B3E8
S11300D0876087BB8DB180658DB9709A089580B7AC
S11300E0886080BF87B7816087BF83B7816083BF23
S11300F008951F920F920FB60F9211248F939F931E
S1130100809102018F5F80930201909100018F73AF
S113011051F49FB9779BFECFC09AC098909100018B
S1130120990F90930001911103C081E08093000125
S11301309F918F910F900FBE0F901F90189580B7CD
S1130140886080BF87B7816087BF83B7816083BFC2
S113015087B3876087BB8DB180658DB9709A7894B9
S1090160FFCFF894FFCF6D
S1050166010092
S9030000FC
